S01D00004D6963726F436F6D70757465727350726F6A6563742E7372656374
S11300000C94B9010C94FA050C9411060C94D601C5
S11300100C94D6010C94D6010C94D6010C94D60100
S11300200C94D6010C94D6010C94D6010C94D601F0
S11300300C94D6010C94A8050C94D6010C94D6010A
S11300400C94D6010C94D6010C94D6010C94D601D0
S11300500C94D6010C94D6010C94D6010C94D601C0
S11300600C94D6010C94D60108000000BE922449D9
S1130070123EABAAAA2ABECDCCCC4C3E00000080D6
S1130080BEABAAAAAA3E00000000BF000000803F49
S11300900000000000084178D3BB4387D1133D1909
S11300A00E3CC3BD4282AD2B3E68EC8276BED98F36
S11300B0E1A93E4C80EFFFBE01C4FF7F3F0000007A
S11300C00000BC5F9C60A4618462B6639664B06502
S11300D09F66B5678968A969FFFF000000000000FA
S11300E00000002F000000000700070000147F1428
S11300F07F1400242A7F2A12006264081323003626
S11301004955225000000503000000001C22410054
S1130110000041221C000014083E08140008083E98
S11301200808000000A06000000808080808000093
S113013060600000002010080402003E5149453E62
S11301400000427F40000042615149460021414580
S11301504B31001814127F10002745454539003CE7
S11301604A494930000171090503003649494936B5
S113017000064949291E00003636000000005636A4
S11301800000000814224100001414141414000088
S11301904122140800020151090600324959513E16
S11301A0007C1211127C007F49494936003E4141CE
S11301B04122007F4141221C007F49494941007F7F
S11301C009090901003E4149497A007F0808087F6E
S11301D00000417F4100002040413F01007F08149E
S11301E02241007F40404040007F020C027F007F9C
S11301F00408107F003E4141413E007F0909090681
S1130200003E4151215E007F0919294600464949B3
S113021049310001017F0101003F4040403F001F80
S11302202040201F003F4038403F006314081463FF
S113023000070870080700615149454300007F41E9
S1130240410000552A552A55000041417F00000411
S1130250020102040040404040400000010204004A
S1130260002054545478007F4844443800384444AF
S1130270442000384444487F00385454541800083B
S11302807E0901020018A4A4A47C007F0804047859
S11302900000447D4000004080847D00007F1028E1
S11302A044000000417F4000007C04180478007C76
S11302B00804047800384444443800FC24242418F6
S11302C00018242418FC007C080404080048545432
S11302D0542000043F444020003C4040207C001C4B
S11302E02040201C003C4030403C0044281028445E
S11302F0001CA0A0A07C004464544C440000087777
S1130300410000000063000000004177080000087D
S113031004080804003A4040207A003D4040403D33
S1130320002154545479007D1211127D0039444443
S11303304439003D4242423D000205020000007E75
S113034001495573007C1010081C003048204830C7
S1130350005C6202625CAE2000B0C8001040813FC5
S1130360A1A6A83FA4D300D5F0D922DA12DB208DB0
S1130370140011241FBECFEFD8E0DEBFCDBF11E0C3
S1130380A0E0B1E0EAE6F2E102C005900D92A231EC
S1130390B107D9F721E0A2E1B1E001C01D92A0327A
S11303A0B207E1F70E94A3050C9433090C940000F2
S11303B01092B90088E48093B80084E08093BC0074
S11303C0089594EA9093BC0020E431E009C02150E0
S11303D0310931F4809115018160809315010895EC
S11303E09091BC0099231CF02115310581F780936D
S11303F0BB0084E88093BC0080E491E008C00197CE
S113040031F4809115018260809315010895209143
S1130410BC00222314F0009791F7089584E9809397
S1130420BC0008958093BB0084E88093BC0080E402
S113043091E008C0019731F48091150184608093A4
S1130440150108952091BC00222314F0009791F720
S113045008950F931F93CF93DF938C01D62F88E7D2
S11304600E94E10180E00E941202C0E007C0F8018E
S1130470EC0FF11D80810E941202CF5FCD17B8F3FB
S11304800E940E02DF91CF911F910F910895EF9278
S1130490FF920F931F93CF93DF937C018B0188E727
S11304A00E94E10180E40E941202C0E0D0E007C093
S11304B0F701EC0FFD1F80810E9412022196C017E4
S11304C0D107B0F30E940E02DF91CF911F910F91DB
S11304D0FF90EF900895CF93DF9300D000D0CDB775
S11304E0DEB7813890F4683080F4E2E1F1E0808393
S11304F061836055698391E29A838B838FE78C8350
S113050064E0CE0101960E9429020F900F900F9093
S11305100F90DF91CF910895982F990F980F892FFD
S1130520880F0E946B02089560E080E00E948C02B4
S113053008951F93CF93DF93CDB7DEB7C058D10989
S11305400FB6F894DEBF0FBECDBFFE01319680E832
S1130550DF011D928A95E9F710E00BC0612F80E05E
S11305600E948C0260E870E0CE0101960E9447026E
S11305701F5F183098F30E949402C058DF4F0FB6E3
S1130580F894DEBF0FBECDBFDF91CF911F910895C8
S11305901F93CF93DF93CDB7DEB76C970FB6F89464
S11305A0DEBF0FBECDBF182F0E94D80120E00EC0C1
S11305B0822F90E0FC01EA5AFC4FE491A1E0B0E004
S11305C0AC0FBD1FA80FB91FEC932F5F2B3180F325
S11305D01C8F6CE1CE0101960E9429020E949902AF
S11305E06C960FB6F894DEBF0FBECDBFDF91CF91EE
S11305F01F910895CF92DF92EF92FF920F931F9372
S1130600CF93DF93CDB7DEB76C970FB6F894DEBF08
S11306100FBECDBF893001F118F4883039F052C0D3
S11306208A30E9F18D3009F447C04CC002E111E091
S1130630F8018081909100016181891B0E948C02E4
S113064080E20E94FA02F8018081909100016181A8
S1130650891B0E948C0259C1809112019091000162
S1130660292F30E0220F331F220F331FB901680FE7
S1130670711D45E150E0FA01E21BF30B6E177F0791
S113068040F4990F990F60911301890F0E948C0215
S11306903CC16091130185E10E948C0236C18091B6
S11306A01301873008F031C160910001680F809117
S11306B012010E948C0229C16091130180E00E9402
S11306C08C0223C1509112015A3708F01EC18032A6
S11306D008F41BC18052E3ECF0E0E4918E1798F427
S11306E023C0F901EE0FFF1FEE53FF4FE491F0E03A
S11306F0B097282F30E0E217F30719F4FB01849137
S113070010C09F5F01C090E0292F30E0F901EE0F87
S1130710FF1FBF016D537F4FFB0144914F3F09F70A
S11307208FEF8F3F09F4F1C090910001923009F0EE
S1130730BEC0252F30E0245F3F4F2138310508F03B
S1130740E4C0F12C4FC06F2D70E0FB01EE0FFF1FD2
S113075021E030E02C0F3D1FE20FF31F15861486B5
S1130760282F30E0F901EE0FFF1FE20FF31FEE0F09
S1130770FF1FE60FF71FE652FF4FE49090E02FC0F3
S1130780A92FB0E02E2D30E0092E02C03595279513
S11307900A94E2F720FF22C0AA0FBB1F21E030E039
S11307A069010A2E02C0CC0CDD1C0A94E2F78B010D
S11307B0000F111FE1E0F0E0EC0FFD1FE00FF11F4F
S11307C0448555854C295D29119602C0220F331F9B
S11307D0AA95E2F7242B352B358724879F5F983021
S11307E078F2F39435E03F1508F0ADCF20E015C062
S11307F0822F90E0880F991FE1E0F0E0EC0FFD1FDD
S1130800E80FF91F348530830196E1E0F0E0EC0F46
S1130810FD1FE80FF91F30832F5F263048F36CE08B
S113082070E0CE0101960E944702E2E1F1E081818D
S11308308F54898F81E28A8F80818B8F8FE78C8F91
S113084064E0CE0149960E94290220E015C0822F5F
S113085090E0880F991FE1E0F0E0EC0FFD1FE80F36
S1130860F91F358530830196E1E0F0E0EC0FFD1FC0
S1130870E80FF91F30832F5F263048F36CE070E0F7
S1130880CE0101960E94470202E111E0F801818144
S11308908055898F8081845F8B8F64E0CE01499677
S11308A00E942902F8018081845F80832EC0252F55
S11308B030E02A5F3F4F2138310538F590E018C009
S11308C0282F30E0492F50E0F901EE0FFF1FE20F0F
S11308D0F31FEE0FFF1FE40FF51FE652FF4FE491E5
S11308E0A1E0B0E0AC0FBD1FA40FB51FEC939F5F58
S11308F0963030F366E070E0CE0101960E94470224
S1130900E2E1F1E080818A5F80836C960FB6F8940F
S1130910DEBF0FBECDBFDF91CF911F910F91FF902E
S1130920EF90DF90CF900895CF93DF93EC0103C055
S113093021960E94FA0288818111FACFDF91CF912A
S1130940089583E880937C00EAE7F0E08081806486
S1130950808380917A0084FFFCCFEAE7F0E0808115
S113096080618083809178009091790008958F92BE
S11309709F92AF92BF92CF92DF92EF92FF920E942A
S1130980A10490931701809316019C01990F440BC5
S1130990550B60EF78E18CE990E00E94BD08CA0134
S11309A0B9016051774281099109609318017093EC
S11309B0190180931A0190931B010E943F070E9422
S11309C0D3076B017C0123E73FE745E759E30E9426
S11309D01B082BEE3FEF43E95AE30E9429064B0123
S11309E05C0129E537E44CEB53E3C701B6010E94EF
S11309F01B089B01AC01C701B6010E941B089B01A7
S1130A00AC01C701B6010E941B089B01AC01C501E2
S1130A10B4010E9429069B01AC0160E070E080E80B
S1130A209FE30E94950623E333E948E853E40E94D8
S1130A30280660931C0170931D0180931E019093FE
S1130A401F01FF90EF90DF90CF90BF90AF909F90E9
S1130A508F9008954C9B03C081E0809314014D99BD
S1130A60109214010895EF92FF920F931F93CF9366
S1130A70DF93CDB7DEB72C970FB6F894DEBF0FBE69
S1130A80CDBF7C0162E082E00E948C0284E091E0B0
S1130A900E94940409811A814AE0B801C7010E94A6
S1130AA0FE08C8010E94940489E091E00E94940425
S1130AB064E082E00E948C028DE091E00E94940444
S1130AC00F8118854AE0B8018091020190910301D9
S1130AD00E94FE08C8010E94940489E091E00E94EB
S1130AE094042C960FB6F894DEBF0FBECDBFDF91F1
S1130AF0CF911F910F91FF90EF9008958AB1837C5D
S1130B008AB987B1877F87B984B1836084B981E06A
S1130B1080936F0083E08DBB9AE090936900789492
S1130B2010928000809381001092850010928400BE
S1130B3087E980937A0080E090E00E9433058FEA91
S1130B400E94C80208950E947E050E942A05FDCFD6
S1130B501F920F920FB60F9211242F933F934F932E
S1130B605F936F937F938F939F93AF93BF93CF9331
S1130B70DF93EF93FF930E94B7040E940707EB01F2
S1130B8020910101222319F0CB010E9433058091A9
S1130B9014018823B1F085B1816085B98091020187
S1130BA090910301C817D90720F485B1826085B9F3
S1130BB003C085B18D7F85B91092850010928400A1
S1130BC006C085B18D7F85B985B18E7F85B9FF91CA
S1130BD0EF91DF91CF91BF91AF919F918F917F91D1
S1130BE06F915F914F913F912F910F900FBE0F9096
S1130BF01F9018951F920F920FB60F9211248F9386
S1130C009F938091020190910301019690930301B7
S1130C10809302019F918F910F900FBE0F901F90B0
S1130C2018951F920F920FB60F9211248F939F93D2
S1130C3080910201909103010197909303018093A5
S1130C4002019F918F910F900FBE0F901F901895E6
S1130C505058BB27AA270E9440060C9491070E9473
S1130C60830738F00E948A0720F039F49F3F19F473
S1130C7026F40C9480070EF4E095E7FB0C947A07B5
S1130C80E92F0E94A20758F3BA1762077307840773
S1130C90950720F079F4A6F50C94C4070EF4E095BA
S1130CA00B2EBA2FA02D0B01B90190010C01CA0122
S1130CB0A0011124FF27591B99F0593F50F4503ECD
S1130CC068F11A16F040A22F232F342F4427585FBF
S1130CD0F3CF469537952795A795F0405395C9F7D7
S1130CE07EF41F16BA0B620B730B840BBAF091508F
S1130CF0A1F0FF0FBB1F661F771F881FC2F70EC02E
S1130D00BA0F621F731F841F48F487957795679500
S1130D10B795F7959E3F08F0B0CF9395880F08F0EC
S1130D209927EE0F9795879508950E94A9060C942C
S1130D3091070E948A0758F00E94830740F029F423
S1130D405F3F29F00C947A0751110C94C5070C9459
S1130D5080070E94A20768F39923B1F3552391F306
S1130D60951B550BBB27AA2762177307840738F016
S1130D709F5F5F4F220F331F441FAA1FA9F335D073
S1130D800E2E3AF0E0E832D091505040E695001C27
S1130D90CAF72BD0FE2F29D0660F771F881FBB1FE1
S1130DA0261737074807AB07B0E809F0BB0B802DBF
S1130DB0BF01FF2793585F4F3AF09E3F510578F0EB
S1130DC00C947A070C94C5075F3FE4F3983ED4F380
S1130DD0869577956795B795F7959F5FC9F7880FBF
S1130DE0911D9695879597F90895E1E0660F771F11
S1130DF0881FBB1F621773078407BA0720F0621BA2
S1130E00730B840BBA0BEE1F88F7E09508950E94CC
S1130E100E076894B1110C94C50708950E94AA079F
S1130E2088F09F5798F0B92F9927B751B0F0E1F0A7
S1130E30660F771F881F991F1AF0BA95C9F714C057
S1130E40B13091F00E94C407B1E008950C94C40736
S1130E50672F782F8827B85F39F0B93FCCF3869590
S1130E6077956795B395D9F73EF4909580957095ED
S1130E7061957F4F8F4F9F4F0895E89409C097FB6A
S1130E803EF490958095709561957F4F8F4F9F4F5D
S1130E909923A9F0F92F96E9BB279395F6958795A1
S1130EA077956795B795F111F8CFFAF4BB0F11F464
S1130EB060FF1BC06F5F7F4F8F4F9F4F16C088230B
S1130EC011F096E911C0772321F09EE8872F762F41
S1130ED005C0662371F096E8862F70E060E02AF082
S1130EE09A95660F771F881FDAF7880F969587956E
S1130EF097F9089597F99F6780E870E060E0089596
S1130F009FEF80EC089500240A941616170618061D
S1130F100906089500240A941216130614060506F9
S1130F200895092E0394000C11F4882352F0BB0F8A
S1130F3040F4BF2B11F460FF04C06F5F7F4F8F4FED
S1130F409F4F089557FD9058440F551F59F05F3F28
S1130F5071F04795880F97FB991F61F09F3F79F0D7
S1130F6087950895121613061406551FF2CF469559
S1130F70F1DF08C0161617061806991FF1CF8695DB
S1130F807105610508940895E894BB2766277727BF
S1130F90CB0197F9089516F00C9488080C948007F7
S1130FA068940C947A070E94AA07A8F39923C1F3C2
S1130FB0AEF3DF93CF931F930F93FF92C92FDD27D7
S1130FC088232AF02197660F771F881FDAF720E01D
S1130FD030E040E85FEB9FE3883920F0803E38F052
S1130FE021968F770E942906E8E6F0E004C00E946B
S1130FF02906E5E9F0E00E9496088B01BE01EC01A8
S1131000FB2E6F5771097595771F880B990B0E94FA
S11310103F0728E132E741E35FE30E942E08AF2D4A
S11310209801AE01FF900F911F91CF91DF910E9423
S113103040060C9491070E942E080C9491070E947C
S1131040830738F00E948A0720F0952311F00C944E
S11310507A070C94800711240C94C5070E94A207F8
S113106070F3959FC1F3950F50E0551F629FF001F7
S1131070729FBB27F00DB11D639FAA27F00DB11D10
S1131080AA1F649F6627B00DA11D661F829F222799
S1131090B00DA11D621F739FB00DA11D621F839F20
S11310A0A00D611D221F749F3327A00D611D231FF6
S11310B0849F600D211D822F762F6A2F11249F5744
S11310C050409AF0F1F088234AF0EE0FFF1FBB1F47
S11310D0661F771F881F91505040A9F79E3F510506
S11310E080F00C947A070C94C5075F3FE4F3983EB4
S11310F0D4F3869577956795B795F795E7959F5FB0
S1131100C1F7FE2B880F911D9695879597F9089541
S11311109F3F31F0915020F4879577956795B79567
S1131120880F911D9695879597F90895DF93CF932E
S11311301F930F93FF92EF92DF927B018C016894CF
S113114006C0DA2EEF010E942E08FE01E894A59154
S11311502591359145915591A6F3EF010E944006E2
S1131160FE019701A801DA9469F7DF90EF90FF90F0
S11311700F911F91CF91DF910895052E97FB1EF4D7
S113118000940E94D40857FD07D00E94DC0807FC95
S113119003D04EF40C94D408509540953095219585
S11311A03F4F4F4F5F4F089590958095709561958F
S11311B07F4F8F4F9F4F0895A1E21A2EAA1BBB1B8E
S11311C0FD010DC0AA1FBB1FEE1FFF1FA217B3070F
S11311D0E407F50720F0A21BB30BE40BF50B661F25
S11311E0771F881F991F1A9469F7609570958095E9
S11311F090959B01AC01BD01CF010895BB274A30F6
S113120031F4992322F4BDE2909581959F4F0C947B
S11312100A09BB27FB015527AA27880F991FAA1F74
S1131220A41710F0A41B83955051B9F7A05DAA33FD
S113123008F0A95DA193009779F7B111B1931192C8
S1131240CB010C942309DC01FC01672F71917723F6
S1131250E1F7329704C07C916D9370836291AE176D
S10D1260BF07C8F30895F894FFCF08
S113126A0101140043543A200020B0430053543A75
S105127A20004E
S9030000FC
